{
  "_format": "hh-sol-artifact-1",
  "contractName": "CarRegistry",
  "sourceName": "contracts/CarRegistry.sol",
  "abi": [
    {
      "inputs": [],
      "stateMutability": "nonpayable",
      "type": "constructor"
    },
    {
      "anonymous": false,
      "inputs": [
        {
          "indexed": true,
          "internalType": "address",
          "name": "previousOwner",
          "type": "address"
        },
        {
          "indexed": true,
          "internalType": "address",
          "name": "newOwner",
          "type": "address"
        }
      ],
      "name": "OwnershipTransferred",
      "type": "event"
    },
    {
      "inputs": [
        {
          "internalType": "string",
          "name": "_carNumber",
          "type": "string"
        },
        {
          "internalType": "address",
          "name": "_owner",
          "type": "address"
        },
        {
          "internalType": "string",
          "name": "_carMake",
          "type": "string"
        },
        {
          "internalType": "string",
          "name": "_carModel",
          "type": "string"
        },
        {
          "internalType": "uint256",
          "name": "_carYear",
          "type": "uint256"
        }
      ],
      "name": "addCarDetail",
      "outputs": [],
      "stateMutability": "nonpayable",
      "type": "function"
    },
    {
      "inputs": [
        {
          "internalType": "string",
          "name": "_carNumber",
          "type": "string"
        }
      ],
      "name": "getCarDetail",
      "outputs": [
        {
          "internalType": "address",
          "name": "owner",
          "type": "address"
        },
        {
          "internalType": "string",
          "name": "make",
          "type": "string"
        },
        {
          "internalType": "string",
          "name": "model",
          "type": "string"
        },
        {
          "internalType": "uint256",
          "name": "year",
          "type": "uint256"
        }
      ],
      "stateMutability": "view",
      "type": "function"
    },
    {
      "inputs": [
        {
          "internalType": "string",
          "name": "_carNumber",
          "type": "string"
        }
      ],
      "name": "getCarOwner",
      "outputs": [
        {
          "internalType": "address",
          "name": "owner",
          "type": "address"
        }
      ],
      "stateMutability": "view",
      "type": "function"
    },
    {
      "inputs": [
        {
          "internalType": "string",
          "name": "_carNumber",
          "type": "string"
        },
        {
          "internalType": "address",
          "name": "_newOwner",
          "type": "address"
        }
      ],
      "name": "transferCarOwnership",
      "outputs": [],
      "stateMutability": "nonpayable",
      "type": "function"
    }
  ],
  "bytecode": "0x60806040523480156200001157600080fd5b506200005e6040518060400160405280601c81526020017f4465706c6f796564204361725265676973747279206279202725732700000000815250336200006460201b62000c7b1760201c565b62000246565b6200010682826040516024016200007d92919062000212565b6040516020818303038152906040527f319af333000000000000000000000000000000000000000000000000000000007bffffffffffffffffffffffffffffffffffffffffffffffffffffffff19166020820180517bffffffffffffffffffffffffffffffffffffffffffffffffffffffff83818316178352505050506200010a60201b60201c565b5050565b60008151905060006a636f6e736f6c652e6c6f679050602083016000808483855afa5050505050565b600081519050919050565b600082825260208201905092915050565b60005b838110156200016f57808201518184015260208101905062000152565b60008484015250505050565b6000601f19601f8301169050919050565b6000620001998262000133565b620001a581856200013e565b9350620001b78185602086016200014f565b620001c2816200017b565b840191505092915050565b600073ffffffffffffffffffffffffffffffffffffffff82169050919050565b6000620001fa82620001cd565b9050919050565b6200020c81620001ed565b82525050565b600060408201905081810360008301526200022e81856200018c565b90506200023f602083018462000201565b9392505050565b61174080620002566000396000f3fe608060405234801561001057600080fd5b506004361061004c5760003560e01c80630b8cf8d1146100515780636f2527d114610081578063d092b93b146100b4578063ff0f4b22146100d0575b600080fd5b61006b60048036038101906100669190610e9a565b6100ec565b6040516100789190610f24565b60405180910390f35b61009b60048036038101906100969190610e9a565b610277565b6040516100ab9493929190610fd7565b60405180910390f35b6100ce60048036038101906100c99190611082565b61058b565b005b6100ea60048036038101906100e59190611151565b610777565b005b60008160008190506000815103610138576040517f08c379a000000000000000000000000000000000000000000000000000000000815260040161012f906111f9565b60405180910390fd5b836000808260405161014a9190611255565b908152602001604051809103902060040180546101669061129b565b80601f01602080910402602001604051908101604052809291908181526020018280546101929061129b565b80156101df5780601f106101b4576101008083540402835291602001916101df565b820191906000526020600020905b8154815290600101906020018083116101c257829003601f168201915b50505050509050600081510361022a576040517f08c379a00000000000000000000000000000000000000000000000000000000081526004016102219061133e565b60405180910390fd5b60008660405161023a9190611255565b908152602001604051809103902060000160009054906101000a900473ffffffffffffffffffffffffffffffffffffffff16945050505050919050565b6000606080600084600081905060008151036102c8576040517f08c379a00000000000000000000000000000000000000000000000000000000081526004016102bf906111f9565b60405180910390fd5b86600080826040516102da9190611255565b908152602001604051809103902060040180546102f69061129b565b80601f01602080910402602001604051908101604052809291908181526020018280546103229061129b565b801561036f5780601f106103445761010080835404028352916020019161036f565b820191906000526020600020905b81548152906001019060200180831161035257829003601f168201915b5050505050905060008151036103ba576040517f08c379a00000000000000000000000000000000000000000000000000000000081526004016103b19061133e565b60405180910390fd5b6000896040516103ca9190611255565b908152602001604051809103902060000160009054906101000a900473ffffffffffffffffffffffffffffffffffffffff1660008a60405161040c9190611255565b908152602001604051809103902060010160008b60405161042d9190611255565b908152602001604051809103902060020160008c60405161044e9190611255565b90815260200160405180910390206003015482805461046c9061129b565b80601f01602080910402602001604051908101604052809291908181526020018280546104989061129b565b80156104e55780601f106104ba576101008083540402835291602001916104e5565b820191906000526020600020905b8154815290600101906020018083116104c857829003601f168201915b505050505092508180546104f89061129b565b80601f01602080910402602001604051908101604052809291908181526020018280546105249061129b565b80156105715780601f1061054657610100808354040283529160200191610571565b820191906000526020600020905b81548152906001019060200180831161055457829003601f168201915b505050505091509750975097509750505050509193509193565b846000808260405161059d9190611255565b908152602001604051809103902060040180546105b99061129b565b80601f01602080910402602001604051908101604052809291908181526020018280546105e59061129b565b80156106325780601f1061060757610100808354040283529160200191610632565b820191906000526020600020905b81548152906001019060200180831161061557829003601f168201915b50505050509050600081511461067d576040517f08c379a0000000000000000000000000000000000000000000000000000000008152600401610674906113d0565b60405180910390fd5b6040518060a001604052808773ffffffffffffffffffffffffffffffffffffffff168152602001868152602001858152602001848152602001888152506000886040516106ca9190611255565b908152602001604051809103902060008201518160000160006101000a81548173ffffffffffffffffffffffffffffffffffffffff021916908373ffffffffffffffffffffffffffffffffffffffff1602179055506020820151816001019081610734919061159c565b50604082015181600201908161074a919061159c565b5060608201518160030155608082015181600401908161076a919061159c565b5090505050505050505050565b81600080826040516107899190611255565b908152602001604051809103902060040180546107a59061129b565b80601f01602080910402602001604051908101604052809291908181526020018280546107d19061129b565b801561081e5780601f106107f35761010080835404028352916020019161081e565b820191906000526020600020905b81548152906001019060200180831161080157829003601f168201915b505050505090506000815103610869576040517f08c379a00000000000000000000000000000000000000000000000000000000081526004016108609061133e565b60405180910390fd5b833373ffffffffffffffffffffffffffffffffffffffff1661088a826100ec565b73ffffffffffffffffffffffffffffffffffffffff16146108e0576040517f08c379a00000000000000000000000000000000000000000000000000000000081526004016108d7906116ba565b60405180910390fd5b600080866040516108f19190611255565b90815260200160405180910390206040518060a00160405290816000820160009054906101000a900473ffffffffffffffffffffffffffffffffffffffff1673ffffffffffffffffffffffffffffffffffffffff1673ffffffffffffffffffffffffffffffffffffffff1681526020016001820180546109709061129b565b80601f016020809104026020016040519081016040528092919081815260200182805461099c9061129b565b80156109e95780601f106109be576101008083540402835291602001916109e9565b820191906000526020600020905b8154815290600101906020018083116109cc57829003601f168201915b50505050508152602001600282018054610a029061129b565b80601f0160208091040260200160405190810160405280929190818152602001828054610a2e9061129b565b8015610a7b5780601f10610a5057610100808354040283529160200191610a7b565b820191906000526020600020905b815481529060010190602001808311610a5e57829003601f168201915b5050505050815260200160038201548152602001600482018054610a9e9061129b565b80601f0160208091040260200160405190810160405280929190818152602001828054610aca9061129b565b8015610b175780601f10610aec57610100808354040283529160200191610b17565b820191906000526020600020905b815481529060010190602001808311610afa57829003601f168201915b505050505081525050905060008160000151905085826000019073ffffffffffffffffffffffffffffffffffffffff16908173ffffffffffffffffffffffffffffffffffffffff168152505081600088604051610b749190611255565b908152602001604051809103902060008201518160000160006101000a81548173ffffffffffffffffffffffffffffffffffffffff021916908373ffffffffffffffffffffffffffffffffffffffff1602179055506020820151816001019081610bde919061159c565b506040820151816002019081610bf4919061159c565b50606082015181600301556080820151816004019081610c14919061159c565b509050508573ffffffffffffffffffffffffffffffffffffffff168173ffffffffffffffffffffffffffffffffffffffff167f8be0079c531659141344cd1fd0a4f28419497f9722a3daafe3b4186f6b6457e060405160405180910390a350505050505050565b610d138282604051602401610c919291906116da565b6040516020818303038152906040527f319af333000000000000000000000000000000000000000000000000000000007bffffffffffffffffffffffffffffffffffffffffffffffffffffffff19166020820180517bffffffffffffffffffffffffffffffffffffffffffffffffffffffff8381831617835250505050610d17565b5050565b60008151905060006a636f6e736f6c652e6c6f679050602083016000808483855afa5050505050565b6000604051905090565b600080fd5b600080fd5b600080fd5b600080fd5b6000601f19601f8301169050919050565b7f4e487b7100000000000000000000000000000000000000000000000000000000600052604160045260246000fd5b610da782610d5e565b810181811067ffffffffffffffff82111715610dc657610dc5610d6f565b5b80604052505050565b6000610dd9610d40565b9050610de58282610d9e565b919050565b600067ffffffffffffffff821115610e0557610e04610d6f565b5b610e0e82610d5e565b9050602081019050919050565b82818337600083830152505050565b6000610e3d610e3884610dea565b610dcf565b905082815260208101848484011115610e5957610e58610d59565b5b610e64848285610e1b565b509392505050565b600082601f830112610e8157610e80610d54565b5b8135610e91848260208601610e2a565b91505092915050565b600060208284031215610eb057610eaf610d4a565b5b600082013567ffffffffffffffff811115610ece57610ecd610d4f565b5b610eda84828501610e6c565b91505092915050565b600073ffffffffffffffffffffffffffffffffffffffff82169050919050565b6000610f0e82610ee3565b9050919050565b610f1e81610f03565b82525050565b6000602082019050610f396000830184610f15565b92915050565b600081519050919050565b600082825260208201905092915050565b60005b83811015610f79578082015181840152602081019050610f5e565b60008484015250505050565b6000610f9082610f3f565b610f9a8185610f4a565b9350610faa818560208601610f5b565b610fb381610d5e565b840191505092915050565b6000819050919050565b610fd181610fbe565b82525050565b6000608082019050610fec6000830187610f15565b8181036020830152610ffe8186610f85565b905081810360408301526110128185610f85565b90506110216060830184610fc8565b95945050505050565b61103381610f03565b811461103e57600080fd5b50565b6000813590506110508161102a565b92915050565b61105f81610fbe565b811461106a57600080fd5b50565b60008135905061107c81611056565b92915050565b600080600080600060a0868803121561109e5761109d610d4a565b5b600086013567ffffffffffffffff8111156110bc576110bb610d4f565b5b6110c888828901610e6c565b95505060206110d988828901611041565b945050604086013567ffffffffffffffff8111156110fa576110f9610d4f565b5b61110688828901610e6c565b935050606086013567ffffffffffffffff81111561112757611126610d4f565b5b61113388828901610e6c565b92505060806111448882890161106d565b9150509295509295909350565b6000806040838503121561116857611167610d4a565b5b600083013567ffffffffffffffff81111561118657611185610d4f565b5b61119285828601610e6c565b92505060206111a385828601611041565b9150509250929050565b7f436172206e756d6265722063616e277420626520656d70747900000000000000600082015250565b60006111e3601983610f4a565b91506111ee826111ad565b602082019050919050565b60006020820190508181036000830152611212816111d6565b9050919050565b600081905092915050565b600061122f82610f3f565b6112398185611219565b9350611249818560208601610f5b565b80840191505092915050565b60006112618284611224565b915081905092915050565b7f4e487b7100000000000000000000000000000000000000000000000000000000600052602260045260246000fd5b600060028204905060018216806112b357607f821691505b6020821081036112c6576112c561126c565b5b50919050565b7f43617220646f6573206e6f74206578697374732077697468207468697320636160008201527f72206e756d626572000000000000000000000000000000000000000000000000602082015250565b6000611328602883610f4a565b9150611333826112cc565b604082019050919050565b600060208201905081810360008301526113578161131b565b9050919050565b7f43617220616c726561647920657869737473207769746820746869732063617260008201527f206e756d62657200000000000000000000000000000000000000000000000000602082015250565b60006113ba602783610f4a565b91506113c58261135e565b604082019050919050565b600060208201905081810360008301526113e9816113ad565b9050919050565b60008190508160005260206000209050919050565b60006020601f8301049050919050565b600082821b905092915050565b6000600883026114527fffffffffffffffffffffffffffffffffffffffffffffffffffffffffffffffff82611415565b61145c8683611415565b95508019841693508086168417925050509392505050565b6000819050919050565b600061149961149461148f84610fbe565b611474565b610fbe565b9050919050565b6000819050919050565b6114b38361147e565b6114c76114bf826114a0565b848454611422565b825550505050565b600090565b6114dc6114cf565b6114e78184846114aa565b505050565b5b8181101561150b576115006000826114d4565b6001810190506114ed565b5050565b601f82111561155057611521816113f0565b61152a84611405565b81016020851015611539578190505b61154d61154585611405565b8301826114ec565b50505b505050565b600082821c905092915050565b600061157360001984600802611555565b1980831691505092915050565b600061158c8383611562565b9150826002028217905092915050565b6115a582610f3f565b67ffffffffffffffff8111156115be576115bd610d6f565b5b6115c8825461129b565b6115d382828561150f565b600060209050601f83116001811461160657600084156115f4578287015190505b6115fe8582611580565b865550611666565b601f198416611614866113f0565b60005b8281101561163c57848901518255600182019150602085019450602081019050611617565b868310156116595784890151611655601f891682611562565b8355505b6001600288020188555050505b505050505050565b7f596f7520617265206e6f74206f776e6572206f66206120636172000000000000600082015250565b60006116a4601a83610f4a565b91506116af8261166e565b602082019050919050565b600060208201905081810360008301526116d381611697565b9050919050565b600060408201905081810360008301526116f48185610f85565b90506117036020830184610f15565b939250505056fea26469706673582212208d443aaf9d28c72060b511dc29f32468b65aaf0276d031088157ebb1c959980b64736f6c63430008120033",
  "linkReferences": {},
  "deployedLinkReferences": {}
}